{
  "contractName": "ProductReg",
  "abi": [
    {
      "inputs": [],
      "stateMutability": "nonpayable",
      "type": "constructor"
    },
    {
      "anonymous": false,
      "inputs": [
        {
          "indexed": false,
          "internalType": "uint256",
          "name": "_id",
          "type": "uint256"
        },
        {
          "indexed": true,
          "internalType": "uint256",
          "name": "pid",
          "type": "uint256"
        },
        {
          "indexed": false,
          "internalType": "string",
          "name": "quality",
          "type": "string"
        },
        {
          "indexed": false,
          "internalType": "string",
          "name": "quantity",
          "type": "string"
        },
        {
          "indexed": false,
          "internalType": "string",
          "name": "exporterLicense",
          "type": "string"
        },
        {
          "indexed": false,
          "internalType": "string",
          "name": "harvestor",
          "type": "string"
        },
        {
          "indexed": false,
          "internalType": "string",
          "name": "source",
          "type": "string"
        }
      ],
      "name": "CreateProductEvent",
      "type": "event"
    },
    {
      "anonymous": false,
      "inputs": [
        {
          "indexed": false,
          "internalType": "bytes",
          "name": "qrCode",
          "type": "bytes"
        }
      ],
      "name": "QRCodeEvent",
      "type": "event"
    },
    {
      "anonymous": false,
      "inputs": [
        {
          "indexed": false,
          "internalType": "bytes",
          "name": "qrCode",
          "type": "bytes"
        }
      ],
      "name": "ScanQRCodeEvent",
      "type": "event"
    },
    {
      "inputs": [],
      "name": "productCount",
      "outputs": [
        {
          "internalType": "uint256",
          "name": "",
          "type": "uint256"
        }
      ],
      "stateMutability": "view",
      "type": "function",
      "constant": true
    },
    {
      "inputs": [
        {
          "internalType": "uint256",
          "name": "",
          "type": "uint256"
        }
      ],
      "name": "products",
      "outputs": [
        {
          "internalType": "uint256",
          "name": "_id",
          "type": "uint256"
        },
        {
          "internalType": "uint256",
          "name": "pid",
          "type": "uint256"
        },
        {
          "internalType": "string",
          "name": "quality",
          "type": "string"
        },
        {
          "internalType": "string",
          "name": "quantity",
          "type": "string"
        },
        {
          "internalType": "string",
          "name": "exporterLicense",
          "type": "string"
        },
        {
          "internalType": "string",
          "name": "harvestor",
          "type": "string"
        },
        {
          "internalType": "string",
          "name": "source",
          "type": "string"
        },
        {
          "internalType": "bool",
          "name": "scanned",
          "type": "bool"
        }
      ],
      "stateMutability": "view",
      "type": "function",
      "constant": true
    },
    {
      "inputs": [
        {
          "internalType": "bytes",
          "name": "",
          "type": "bytes"
        }
      ],
      "name": "qrCodesScanned",
      "outputs": [
        {
          "internalType": "bool",
          "name": "",
          "type": "bool"
        }
      ],
      "stateMutability": "view",
      "type": "function",
      "constant": true
    },
    {
      "inputs": [
        {
          "internalType": "uint256",
          "name": "pid",
          "type": "uint256"
        },
        {
          "internalType": "string",
          "name": "_quality",
          "type": "string"
        },
        {
          "internalType": "string",
          "name": "_quantity",
          "type": "string"
        },
        {
          "internalType": "string",
          "name": "_exporterLicense",
          "type": "string"
        },
        {
          "internalType": "string",
          "name": "_harvestor",
          "type": "string"
        },
        {
          "internalType": "string",
          "name": "_source",
          "type": "string"
        }
      ],
      "name": "createProduct",
      "outputs": [
        {
          "components": [
            {
              "internalType": "uint256",
              "name": "_id",
              "type": "uint256"
            },
            {
              "internalType": "uint256",
              "name": "pid",
              "type": "uint256"
            },
            {
              "internalType": "string",
              "name": "quality",
              "type": "string"
            },
            {
              "internalType": "string",
              "name": "quantity",
              "type": "string"
            },
            {
              "internalType": "string",
              "name": "exporterLicense",
              "type": "string"
            },
            {
              "internalType": "string",
              "name": "harvestor",
              "type": "string"
            },
            {
              "internalType": "string",
              "name": "source",
              "type": "string"
            },
            {
              "internalType": "bool",
              "name": "scanned",
              "type": "bool"
            }
          ],
          "internalType": "struct ProductReg.Product",
          "name": "",
          "type": "tuple"
        }
      ],
      "stateMutability": "nonpayable",
      "type": "function"
    },
    {
      "inputs": [
        {
          "internalType": "uint256",
          "name": "pid",
          "type": "uint256"
        }
      ],
      "name": "getProductById",
      "outputs": [
        {
          "components": [
            {
              "internalType": "uint256",
              "name": "_id",
              "type": "uint256"
            },
            {
              "internalType": "uint256",
              "name": "pid",
              "type": "uint256"
            },
            {
              "internalType": "string",
              "name": "quality",
              "type": "string"
            },
            {
              "internalType": "string",
              "name": "quantity",
              "type": "string"
            },
            {
              "internalType": "string",
              "name": "exporterLicense",
              "type": "string"
            },
            {
              "internalType": "string",
              "name": "harvestor",
              "type": "string"
            },
            {
              "internalType": "string",
              "name": "source",
              "type": "string"
            },
            {
              "internalType": "bool",
              "name": "scanned",
              "type": "bool"
            }
          ],
          "internalType": "struct ProductReg.Product",
          "name": "",
          "type": "tuple"
        }
      ],
      "stateMutability": "view",
      "type": "function",
      "constant": true
    },
    {
      "inputs": [
        {
          "internalType": "uint256",
          "name": "_id",
          "type": "uint256"
        }
      ],
      "name": "getQRCodeById",
      "outputs": [
        {
          "internalType": "bytes",
          "name": "",
          "type": "bytes"
        }
      ],
      "stateMutability": "view",
      "type": "function",
      "constant": true
    },
    {
      "inputs": [
        {
          "internalType": "bytes",
          "name": "qrCode",
          "type": "bytes"
        }
      ],
      "name": "scanQRCode",
      "outputs": [],
      "stateMutability": "nonpayable",
      "type": "function"
    },
    {
      "inputs": [
        {
          "internalType": "uint256",
          "name": "pid",
          "type": "uint256"
        }
      ],
      "name": "scanProduct",
      "outputs": [],
      "stateMutability": "nonpayable",
      "type": "function"
    }
  ],
  "bytecode": "0x608060405260006002553480156200001657600080fd5b506200013760016040518060400160405280600181526020017f41000000000000000000000000000000000000000000000000000000000000008152506040518060400160405280600381526020017f326b6700000000000000000000000000000000000000000000000000000000008152506040518060400160405280600381526020017f31325000000000000000000000000000000000000000000000000000000000008152506040518060400160405280600481526020017f50757275000000000000000000000000000000000000000000000000000000008152506040518060400160405280600481526020017f47617361000000000000000000000000000000000000000000000000000000008152506200013e60201b60201c565b5062000b5b565b6200014862000607565b600260008154809291906200015d9062000687565b9190505550604051806101000160405280600254815260200188815260200187815260200186815260200185815260200184815260200183815260200160001515815250600080600254815260200190815260200160002060008201518160000155602082015181600101556040820151816002019081620001e0919062000944565b506060820151816003019081620001f8919062000944565b50608082015181600401908162000210919062000944565b5060a082015181600501908162000228919062000944565b5060c082015181600601908162000240919062000944565b5060e08201518160070160006101000a81548160ff021916908315150217905550905050867fa92efe0f4decaa225183240e9686c2c4a96634015bb6dfd85a5e064776934e466002548888888888604051620002a29695949392919062000acb565b60405180910390a26000806002548152602001908152602001600020604051806101000160405290816000820154815260200160018201548152602001600282018054620002f0906200073d565b80601f01602080910402602001604051908101604052809291908181526020018280546200031e906200073d565b80156200036f5780601f1062000343576101008083540402835291602001916200036f565b820191906000526020600020905b8154815290600101906020018083116200035157829003601f168201915b505050505081526020016003820180546200038a906200073d565b80601f0160208091040260200160405190810160405280929190818152602001828054620003b8906200073d565b8015620004095780601f10620003dd5761010080835404028352916020019162000409565b820191906000526020600020905b815481529060010190602001808311620003eb57829003601f168201915b5050505050815260200160048201805462000424906200073d565b80601f016020809104026020016040519081016040528092919081815260200182805462000452906200073d565b8015620004a35780601f106200047757610100808354040283529160200191620004a3565b820191906000526020600020905b8154815290600101906020018083116200048557829003601f168201915b50505050508152602001600582018054620004be906200073d565b80601f0160208091040260200160405190810160405280929190818152602001828054620004ec906200073d565b80156200053d5780601f1062000511576101008083540402835291602001916200053d565b820191906000526020600020905b8154815290600101906020018083116200051f57829003601f168201915b5050505050815260200160068201805462000558906200073d565b80601f016020809104026020016040519081016040528092919081815260200182805462000586906200073d565b8015620005d75780601f10620005ab57610100808354040283529160200191620005d7565b820191906000526020600020905b815481529060010190602001808311620005b957829003601f168201915b505050505081526020016007820160009054906101000a900460ff16151515158152505090509695505050505050565b604051806101000160405280600081526020016000815260200160608152602001606081526020016060815260200160608152602001606081526020016000151581525090565b7f4e487b7100000000000000000000000000000000000000000000000000000000600052601160045260246000fd5b6000819050919050565b600062000694826200067d565b91507fffffffffffffffffffffffffffffffffffffffffffffffffffffffffffffffff8203620006c957620006c86200064e565b5b600182019050919050565b600081519050919050565b7f4e487b7100000000000000000000000000000000000000000000000000000000600052604160045260246000fd5b7f4e487b7100000000000000000000000000000000000000000000000000000000600052602260045260246000fd5b600060028204905060018216806200075657607f821691505b6020821081036200076c576200076b6200070e565b5b50919050565b60008190508160005260206000209050919050565b60006020601f8301049050919050565b600082821b905092915050565b600060088302620007d67fffffffffffffffffffffffffffffffffffffffffffffffffffffffffffffffff8262000797565b620007e2868362000797565b95508019841693508086168417925050509392505050565b6000819050919050565b6000620008256200081f62000819846200067d565b620007fa565b6200067d565b9050919050565b6000819050919050565b620008418362000804565b6200085962000850826200082c565b848454620007a4565b825550505050565b600090565b6200087062000861565b6200087d81848462000836565b505050565b5b81811015620008a5576200089960008262000866565b60018101905062000883565b5050565b601f821115620008f457620008be8162000772565b620008c98462000787565b81016020851015620008d9578190505b620008f1620008e88562000787565b83018262000882565b50505b505050565b600082821c905092915050565b60006200091960001984600802620008f9565b1980831691505092915050565b600062000934838362000906565b9150826002028217905092915050565b6200094f82620006d4565b67ffffffffffffffff8111156200096b576200096a620006df565b5b6200097782546200073d565b62000984828285620008a9565b600060209050601f831160018114620009bc5760008415620009a7578287015190505b620009b3858262000926565b86555062000a23565b601f198416620009cc8662000772565b60005b82811015620009f657848901518255600182019150602085019450602081019050620009cf565b8683101562000a16578489015162000a12601f89168262000906565b8355505b6001600288020188555050505b505050505050565b62000a36816200067d565b82525050565b600082825260208201905092915050565b60005b8381101562000a6d57808201518184015260208101905062000a50565b60008484015250505050565b6000601f19601f8301169050919050565b600062000a9782620006d4565b62000aa3818562000a3c565b935062000ab581856020860162000a4d565b62000ac08162000a79565b840191505092915050565b600060c08201905062000ae2600083018962000a2b565b818103602083015262000af6818862000a8a565b9050818103604083015262000b0c818762000a8a565b9050818103606083015262000b22818662000a8a565b9050818103608083015262000b38818562000a8a565b905081810360a083015262000b4e818462000a8a565b9050979650505050505050565b6122df8062000b6b6000396000f3fe608060405234801561001057600080fd5b50600436106100885760003560e01c806382dfd1d61161005b57806382dfd1d614610140578063e0f6ef8714610170578063e23843ac1461018e578063f7ac786c146101aa57610088565b80633f70c2b41461008d57806345674d57146100bd5780634dc9fffa146100d95780637acc0b2014610109575b600080fd5b6100a760048036038101906100a2919061153a565b6101da565b6040516100b491906116ed565b60405180910390f35b6100d760048036038101906100d29190611844565b61058f565b005b6100f360048036038101906100ee919061192e565b610634565b60405161010091906116ed565b60405180910390f35b610123600480360381019061011e919061153a565b610ac5565b604051610137989796959493929190611aaf565b60405180910390f35b61015a60048036038101906101559190611844565b610dc2565b6040516101679190611b50565b60405180910390f35b610178610df8565b6040516101859190611b6b565b60405180910390f35b6101a860048036038101906101a3919061153a565b610dfe565b005b6101c460048036038101906101bf919061153a565b610e92565b6040516101d19190611bdb565b60405180910390f35b6101e26114a9565b6000600190505b82811161054e5782600080838152602001908152602001600020600101540361053b5760008082815260200190815260200160002060405180610100016040529081600082015481526020016001820154815260200160028201805461024e90611c2c565b80601f016020809104026020016040519081016040528092919081815260200182805461027a90611c2c565b80156102c75780601f1061029c576101008083540402835291602001916102c7565b820191906000526020600020905b8154815290600101906020018083116102aa57829003601f168201915b505050505081526020016003820180546102e090611c2c565b80601f016020809104026020016040519081016040528092919081815260200182805461030c90611c2c565b80156103595780601f1061032e57610100808354040283529160200191610359565b820191906000526020600020905b81548152906001019060200180831161033c57829003601f168201915b5050505050815260200160048201805461037290611c2c565b80601f016020809104026020016040519081016040528092919081815260200182805461039e90611c2c565b80156103eb5780601f106103c0576101008083540402835291602001916103eb565b820191906000526020600020905b8154815290600101906020018083116103ce57829003601f168201915b5050505050815260200160058201805461040490611c2c565b80601f016020809104026020016040519081016040528092919081815260200182805461043090611c2c565b801561047d5780601f106104525761010080835404028352916020019161047d565b820191906000526020600020905b81548152906001019060200180831161046057829003601f168201915b5050505050815260200160068201805461049690611c2c565b80601f01602080910402602001604051908101604052809291908181526020018280546104c290611c2c565b801561050f5780601f106104e45761010080835404028352916020019161050f565b820191906000526020600020905b8154815290600101906020018083116104f257829003601f168201915b505050505081526020016007820160009054906101000a900460ff16151515158152505091505061058a565b808061054690611c8c565b9150506101e9565b506040517f08c379a000000000000000000000000000000000000000000000000000000000815260040161058190611d20565b60405180910390fd5b919050565b60018160405161059f9190611d7c565b908152602001604051809103902060009054906101000a900460ff16156105fb576040517f08c379a00000000000000000000000000000000000000000000000000000000081526004016105f290611ddf565b60405180910390fd5b6001808260405161060c9190611d7c565b908152602001604051809103902060006101000a81548160ff02191690831515021790555050565b61063c6114a9565b6002600081548092919061064f90611c8c565b91905055506040518061010001604052806002548152602001888152602001878152602001868152602001858152602001848152602001838152602001600015158152506000806002548152602001908152602001600020600082015181600001556020820151816001015560408201518160020190816106d09190611fab565b5060608201518160030190816106e69190611fab565b5060808201518160040190816106fc9190611fab565b5060a08201518160050190816107129190611fab565b5060c08201518160060190816107289190611fab565b5060e08201518160070160006101000a81548160ff021916908315150217905550905050867fa92efe0f4decaa225183240e9686c2c4a96634015bb6dfd85a5e064776934e4660025488888888886040516107889695949392919061207d565b60405180910390a260008060025481526020019081526020016000206040518061010001604052908160008201548152602001600182015481526020016002820180546107d490611c2c565b80601f016020809104026020016040519081016040528092919081815260200182805461080090611c2c565b801561084d5780601f106108225761010080835404028352916020019161084d565b820191906000526020600020905b81548152906001019060200180831161083057829003601f168201915b5050505050815260200160038201805461086690611c2c565b80601f016020809104026020016040519081016040528092919081815260200182805461089290611c2c565b80156108df5780601f106108b4576101008083540402835291602001916108df565b820191906000526020600020905b8154815290600101906020018083116108c257829003601f168201915b505050505081526020016004820180546108f890611c2c565b80601f016020809104026020016040519081016040528092919081815260200182805461092490611c2c565b80156109715780601f1061094657610100808354040283529160200191610971565b820191906000526020600020905b81548152906001019060200180831161095457829003601f168201915b5050505050815260200160058201805461098a90611c2c565b80601f01602080910402602001604051908101604052809291908181526020018280546109b690611c2c565b8015610a035780601f106109d857610100808354040283529160200191610a03565b820191906000526020600020905b8154815290600101906020018083116109e657829003601f168201915b50505050508152602001600682018054610a1c90611c2c565b80601f0160208091040260200160405190810160405280929190818152602001828054610a4890611c2c565b8015610a955780601f10610a6a57610100808354040283529160200191610a95565b820191906000526020600020905b815481529060010190602001808311610a7857829003601f168201915b505050505081526020016007820160009054906101000a900460ff16151515158152505090509695505050505050565b6000602052806000526040600020600091509050806000015490806001015490806002018054610af490611c2c565b80601f0160208091040260200160405190810160405280929190818152602001828054610b2090611c2c565b8015610b6d5780601f10610b4257610100808354040283529160200191610b6d565b820191906000526020600020905b815481529060010190602001808311610b5057829003601f168201915b505050505090806003018054610b8290611c2c565b80601f0160208091040260200160405190810160405280929190818152602001828054610bae90611c2c565b8015610bfb5780601f10610bd057610100808354040283529160200191610bfb565b820191906000526020600020905b815481529060010190602001808311610bde57829003601f168201915b505050505090806004018054610c1090611c2c565b80601f0160208091040260200160405190810160405280929190818152602001828054610c3c90611c2c565b8015610c895780601f10610c5e57610100808354040283529160200191610c89565b820191906000526020600020905b815481529060010190602001808311610c6c57829003601f168201915b505050505090806005018054610c9e90611c2c565b80601f0160208091040260200160405190810160405280929190818152602001828054610cca90611c2c565b8015610d175780601f10610cec57610100808354040283529160200191610d17565b820191906000526020600020905b815481529060010190602001808311610cfa57829003601f168201915b505050505090806006018054610d2c90611c2c565b80601f0160208091040260200160405190810160405280929190818152602001828054610d5890611c2c565b8015610da55780601f10610d7a57610100808354040283529160200191610da5565b820191906000526020600020905b815481529060010190602001808311610d8857829003601f168201915b5050505050908060070160009054906101000a900460ff16905088565b6001818051602081018201805184825260208301602085012081835280955050505050506000915054906101000a900460ff1681565b60025481565b60008082815260200190815260200160002060070160009054906101000a900460ff1615610e61576040517f08c379a0000000000000000000000000000000000000000000000000000000008152600401610e589061214d565b60405180910390fd5b600160008083815260200190815260200160002060070160006101000a81548160ff02191690831515021790555050565b6060600082118015610ea657506002548211155b610ee5576040517f08c379a0000000000000000000000000000000000000000000000000000000008152600401610edc906121b9565b60405180910390fd5b611214600080848152602001908152602001600020604051806101000160405290816000820154815260200160018201548152602001600282018054610f2a90611c2c565b80601f0160208091040260200160405190810160405280929190818152602001828054610f5690611c2c565b8015610fa35780601f10610f7857610100808354040283529160200191610fa3565b820191906000526020600020905b815481529060010190602001808311610f8657829003601f168201915b50505050508152602001600382018054610fbc90611c2c565b80601f0160208091040260200160405190810160405280929190818152602001828054610fe890611c2c565b80156110355780601f1061100a57610100808354040283529160200191611035565b820191906000526020600020905b81548152906001019060200180831161101857829003601f168201915b5050505050815260200160048201805461104e90611c2c565b80601f016020809104026020016040519081016040528092919081815260200182805461107a90611c2c565b80156110c75780601f1061109c576101008083540402835291602001916110c7565b820191906000526020600020905b8154815290600101906020018083116110aa57829003601f168201915b505050505081526020016005820180546110e090611c2c565b80601f016020809104026020016040519081016040528092919081815260200182805461110c90611c2c565b80156111595780601f1061112e57610100808354040283529160200191611159565b820191906000526020600020905b81548152906001019060200180831161113c57829003601f168201915b5050505050815260200160068201805461117290611c2c565b80601f016020809104026020016040519081016040528092919081815260200182805461119e90611c2c565b80156111eb5780601f106111c0576101008083540402835291602001916111eb565b820191906000526020600020905b8154815290600101906020018083116111ce57829003601f168201915b505050505081526020016007820160009054906101000a900460ff16151515158152505061121b565b9050919050565b6060600061122c8360000151611288565b6112398460200151611288565b8460400151856060015186608001518760a001518860c001516040516020016112689796959493929190612215565b604051602081830303815290604052905060008190508092505050919050565b60606000600161129784611356565b01905060008167ffffffffffffffff8111156112b6576112b5611719565b5b6040519080825280601f01601f1916602001820160405280156112e85781602001600182028036833780820191505090505b509050600082602001820190505b60011561134b578080600190039150507f3031323334353637383961626364656600000000000000000000000000000000600a86061a8153600a858161133f5761133e61227a565b5b049450600085036112f6575b819350505050919050565b600080600090507a184f03e93ff9f4daa797ed6e38ed64bf6a1f01000000000000000083106113b4577a184f03e93ff9f4daa797ed6e38ed64bf6a1f01000000000000000083816113aa576113a961227a565b5b0492506040810190505b6d04ee2d6d415b85acef810000000083106113f1576d04ee2d6d415b85acef810000000083816113e7576113e661227a565b5b0492506020810190505b662386f26fc10000831061142057662386f26fc1000083816114165761141561227a565b5b0492506010810190505b6305f5e1008310611449576305f5e100838161143f5761143e61227a565b5b0492506008810190505b612710831061146e5761271083816114645761146361227a565b5b0492506004810190505b6064831061149157606483816114875761148661227a565b5b0492506002810190505b600a83106114a0576001810190505b80915050919050565b604051806101000160405280600081526020016000815260200160608152602001606081526020016060815260200160608152602001606081526020016000151581525090565b6000604051905090565b600080fd5b600080fd5b6000819050919050565b61151781611504565b811461152257600080fd5b50565b6000813590506115348161150e565b92915050565b6000602082840312156115505761154f6114fa565b5b600061155e84828501611525565b91505092915050565b61157081611504565b82525050565b600081519050919050565b600082825260208201905092915050565b60005b838110156115b0578082015181840152602081019050611595565b60008484015250505050565b6000601f19601f8301169050919050565b60006115d882611576565b6115e28185611581565b93506115f2818560208601611592565b6115fb816115bc565b840191505092915050565b60008115159050919050565b61161b81611606565b82525050565b60006101008301600083015161163a6000860182611567565b50602083015161164d6020860182611567565b506040830151848203604086015261166582826115cd565b9150506060830151848203606086015261167f82826115cd565b9150506080830151848203608086015261169982826115cd565b91505060a083015184820360a08601526116b382826115cd565b91505060c083015184820360c08601526116cd82826115cd565b91505060e08301516116e260e0860182611612565b508091505092915050565b600060208201905081810360008301526117078184611621565b905092915050565b600080fd5b600080fd5b7f4e487b7100000000000000000000000000000000000000000000000000000000600052604160045260246000fd5b611751826115bc565b810181811067ffffffffffffffff821117156117705761176f611719565b5b80604052505050565b60006117836114f0565b905061178f8282611748565b919050565b600067ffffffffffffffff8211156117af576117ae611719565b5b6117b8826115bc565b9050602081019050919050565b82818337600083830152505050565b60006117e76117e284611794565b611779565b90508281526020810184848401111561180357611802611714565b5b61180e8482856117c5565b509392505050565b600082601f83011261182b5761182a61170f565b5b813561183b8482602086016117d4565b91505092915050565b60006020828403121561185a576118596114fa565b5b600082013567ffffffffffffffff811115611878576118776114ff565b5b61188484828501611816565b91505092915050565b600067ffffffffffffffff8211156118a8576118a7611719565b5b6118b1826115bc565b9050602081019050919050565b60006118d16118cc8461188d565b611779565b9050828152602081018484840111156118ed576118ec611714565b5b6118f88482856117c5565b509392505050565b600082601f8301126119155761191461170f565b5b81356119258482602086016118be565b91505092915050565b60008060008060008060c0878903121561194b5761194a6114fa565b5b600061195989828a01611525565b965050602087013567ffffffffffffffff81111561197a576119796114ff565b5b61198689828a01611900565b955050604087013567ffffffffffffffff8111156119a7576119a66114ff565b5b6119b389828a01611900565b945050606087013567ffffffffffffffff8111156119d4576119d36114ff565b5b6119e089828a01611900565b935050608087013567ffffffffffffffff811115611a0157611a006114ff565b5b611a0d89828a01611900565b92505060a087013567ffffffffffffffff811115611a2e57611a2d6114ff565b5b611a3a89828a01611900565b9150509295509295509295565b611a5081611504565b82525050565b600082825260208201905092915050565b6000611a7282611576565b611a7c8185611a56565b9350611a8c818560208601611592565b611a95816115bc565b840191505092915050565b611aa981611606565b82525050565b600061010082019050611ac5600083018b611a47565b611ad2602083018a611a47565b8181036040830152611ae48189611a67565b90508181036060830152611af88188611a67565b90508181036080830152611b0c8187611a67565b905081810360a0830152611b208186611a67565b905081810360c0830152611b348185611a67565b9050611b4360e0830184611aa0565b9998505050505050505050565b6000602082019050611b656000830184611aa0565b92915050565b6000602082019050611b806000830184611a47565b92915050565b600081519050919050565b600082825260208201905092915050565b6000611bad82611b86565b611bb78185611b91565b9350611bc7818560208601611592565b611bd0816115bc565b840191505092915050565b60006020820190508181036000830152611bf58184611ba2565b905092915050565b7f4e487b7100000000000000000000000000000000000000000000000000000000600052602260045260246000fd5b60006002820490506001821680611c4457607f821691505b602082108103611c5757611c56611bfd565b5b50919050565b7f4e487b7100000000000000000000000000000000000000000000000000000000600052601160045260246000fd5b6000611c9782611504565b91507fffffffffffffffffffffffffffffffffffffffffffffffffffffffffffffffff8203611cc957611cc8611c5d565b5b600182019050919050565b7f50726f64756374206e6f7420666f756e64000000000000000000000000000000600082015250565b6000611d0a601183611a56565b9150611d1582611cd4565b602082019050919050565b60006020820190508181036000830152611d3981611cfd565b9050919050565b600081905092915050565b6000611d5682611b86565b611d608185611d40565b9350611d70818560208601611592565b80840191505092915050565b6000611d888284611d4b565b915081905092915050565b7f515220636f646520616c7265616479207363616e6e6564000000000000000000600082015250565b6000611dc9601783611a56565b9150611dd482611d93565b602082019050919050565b60006020820190508181036000830152611df881611dbc565b9050919050565b60008190508160005260206000209050919050565b60006020601f8301049050919050565b600082821b905092915050565b600060088302611e617fffffffffffffffffffffffffffffffffffffffffffffffffffffffffffffffff82611e24565b611e6b8683611e24565b95508019841693508086168417925050509392505050565b6000819050919050565b6000611ea8611ea3611e9e84611504565b611e83565b611504565b9050919050565b6000819050919050565b611ec283611e8d565b611ed6611ece82611eaf565b848454611e31565b825550505050565b600090565b611eeb611ede565b611ef6818484611eb9565b505050565b5b81811015611f1a57611f0f600082611ee3565b600181019050611efc565b5050565b601f821115611f5f57611f3081611dff565b611f3984611e14565b81016020851015611f48578190505b611f5c611f5485611e14565b830182611efb565b50505b505050565b600082821c905092915050565b6000611f8260001984600802611f64565b1980831691505092915050565b6000611f9b8383611f71565b9150826002028217905092915050565b611fb482611576565b67ffffffffffffffff811115611fcd57611fcc611719565b5b611fd78254611c2c565b611fe2828285611f1e565b600060209050601f8311600181146120155760008415612003578287015190505b61200d8582611f8f565b865550612075565b601f19841661202386611dff565b60005b8281101561204b57848901518255600182019150602085019450602081019050612026565b868310156120685784890151612064601f891682611f71565b8355505b6001600288020188555050505b505050505050565b600060c0820190506120926000830189611a47565b81810360208301526120a48188611a67565b905081810360408301526120b88187611a67565b905081810360608301526120cc8186611a67565b905081810360808301526120e08185611a67565b905081810360a08301526120f48184611a67565b9050979650505050505050565b7f50726f6475637420616c7265616479207363616e6e6564000000000000000000600082015250565b6000612137601783611a56565b915061214282612101565b602082019050919050565b600060208201905081810360008301526121668161212a565b9050919050565b7f496e76616c69642070726f647563742049440000000000000000000000000000600082015250565b60006121a3601283611a56565b91506121ae8261216d565b602082019050919050565b600060208201905081810360008301526121d281612196565b9050919050565b600081905092915050565b60006121ef82611576565b6121f981856121d9565b9350612209818560208601611592565b80840191505092915050565b6000612221828a6121e4565b915061222d82896121e4565b915061223982886121e4565b915061224582876121e4565b915061225182866121e4565b915061225d82856121e4565b915061226982846121e4565b915081905098975050505050505050565b7f4e487b7100000000000000000000000000000000000000000000000000000000600052601260045260246000fdfea2646970667358221220b08a34f5badef7c0a94f764fbce6f5aab9adbf62dc20a2be0f7a364809e1ed4e64736f6c63430008130033",
  "immutableReferences": {},
  "source": "// SPDX-License-Identifier: MIT\npragma solidity ^0.8.0;\nimport \"@openzeppelin/contracts/utils/Strings.sol\";\n\ncontract ProductReg {\n    using Strings for uint256; // import the Strings library\n\n    struct Product {\n        uint _id;\n        uint pid;\n        string quality;\n        string quantity;\n        string exporterLicense;\n        string harvestor;\n        string source;\n        bool scanned; // Add scanned property\n    }\n\n    mapping(uint => Product) public products;\n    mapping(bytes => bool) public qrCodesScanned;\n\n    uint public productCount = 0;\n\n    event CreateProductEvent(\n        uint _id,\n        uint indexed pid,\n        string quality,\n        string quantity,\n        string exporterLicense,\n        string harvestor,\n        string source\n    );\n\n    event ScanQRCodeEvent(bytes qrCode);\n    event QRCodeEvent(bytes qrCode);\n\n\n    constructor() {\n        createProduct(1, \"A\", \"2kg\", \"12P\", \"Puru\", \"Gasa\");\n    }\n\n    function createProduct(\n        uint pid,\n        string memory _quality,\n        string memory _quantity,\n        string memory _exporterLicense,\n        string memory _harvestor,\n        string memory _source\n    ) public returns (Product memory) {\n        productCount++;\n        products[productCount] = Product(\n            productCount,\n            pid,\n            _quality,\n            _quantity,\n            _exporterLicense,\n            _harvestor,\n            _source,\n            false // Initialize scanned as false\n        );\n        emit CreateProductEvent(\n            productCount,\n            pid,\n            _quality,\n            _quantity,\n            _exporterLicense,\n            _harvestor,\n            _source\n        );\n        return products[productCount];\n    }\n    function getProductById(uint pid) public view returns (Product memory) {\n    // require(pid > 0 && pid <= productCount, \"Invalid product ID\");\n\n    // Assuming the product ID assigned during registration is stored in the `productId` field of the `Product` struct\n    for (uint i = 1; i <= pid; i++) {\n        if (products[i].pid == pid) {\n            return products[i];\n        }\n    }\n\n    revert(\"Product not found\");\n}\n\n\n    function getQRCodeById(uint _id) public view returns (bytes memory) {\n    require(_id > 0 && _id <= productCount, \"Invalid product ID\");\n    return generateQRCode(products[_id]);\n    }\n\n    function generateQRCode(Product memory product) internal pure returns (bytes memory) {\n    // Convert the product details into a concatenated string\n    string memory productDetails = string(abi.encodePacked(\n        product._id.toString(),\n        product.pid.toString(),\n        product.quality,\n        product.quantity,\n        product.exporterLicense,\n        product.harvestor,\n        product.source\n    ));\n    \n    // Convert the string to bytes\n    bytes memory qrCode = bytes(productDetails);\n    // emit (qrCode);\n    return qrCode;\n}\nfunction emitQRCodeEvent(bytes memory qrCode) internal {\n    emit QRCodeEvent(qrCode);\n}\n\n\n    function scanQRCode(bytes memory qrCode) public {\n        require(!qrCodesScanned[qrCode], \"QR code already scanned\");\n        qrCodesScanned[qrCode] = true;\n    }\n\n    function scanProduct(uint pid) public {\n    require(!products[pid].scanned, \"Product already scanned\");\n    products[pid].scanned = true;\n}\n\n}\n\n",
  "sourcePath": "/workspaces/proj/SC/contracts/productReg.sol",
  "compiler": {
    "name": "solc",
    "version": "0.8.19+commit.7dd6d404.Emscripten.clang"
  },
  "schemaVersion": "3.4.13",
  "updatedAt": "2023-06-05T10:49:21.879Z",
  "networkType": "ethereum",
  "devdoc": {
    "kind": "dev",
    "methods": {},
    "version": 1
  },
  "userdoc": {
    "kind": "user",
    "methods": {},
    "version": 1
  }
}